:1000000012C01FC01EC01DC01CC073C01AC019C0C2
:1000100018C017C016C015C014C013C012C011C03C
:1000200010C00FC00EC011241FBECFEDCDBF10E019
:10003000A0E6B0E001C01D92A838B107E1F796D064
:1000400005C3DECF94980895949A08959598FADFA1
:100050000895959AF9DF0895CF92DF92EF92FF927B
:100060000F931F93DF93CF93CDB7DEB7C950CDBFAA
:10007000109265008FEF89838E010E5F1F4F7E0106
:100080000894E11CF11C2AE0C22ED12CCC0EDD1EFE
:100090001CC0C701B8013FD289818F3FE9F08E3F74
:1000A000D9F080916500D801E82FF0E093E0EE0FE1
:1000B000FF1F9A95E1F7E059FF4F9D919193AC1581
:1000C000BD05D9F78F5F809365008981882321F072
:1000D000809165008330E8F280916500C75FCDBFF5
:1000E000CF91DF911F910F91FF90EF90DF90CF9014
:1000F00008951F920F920FB60F9211248F939F9322
:1001000082EB9FEF9DBD8CBD809163008F5F8093DC
:1001100063008E3038F0109263008CB59DB5019766
:100120009DBD8CBD809160008F5F809360008436A0
:10013000B0F010926000809161008F5F8093610049
:100140008C3368F010926100809162008F5F809321
:10015000620081E090E090936F0080936E009F9129
:100160008F910F900FBE0F901F901895CF92DF9236
:10017000EF92FF920F931F93DF93CF93CDB7DEB72C
:10018000C350CDBF2EE088E190E00FB6F894A8955B
:1001900081BD0FBE21BD80E886BD16BC90E09A955A
:1001A000F1F789BF85E08EBD82EB9FEF9DBD8CBDD1
:1001B00078948D9A8C9A4ADF8FEF94E3ACE081506B
:1001C0009040A040E1F700C00000A89542DF8FEF0B
:1001D00094E3ACE081509040A040E1F700C0000003
:1001E000A89530DF8FEF94E3ACE081509040A040C1
:1001F000E1F700C00000A89527DF8FEF94E3ACE0A3
:1002000081509040A040E1F700C00000A8951A82FC
:1002100023DF80936500109267001092660012C081
:10022000E3E0660F771FEA95E1F760597F4F81E0C1
:100230008BD1809166009091670001969093670042
:100240008093660060916600709167008091650000
:1002500090E06817790724F372E0E72EF12CEC0E9A
:10026000FD1E63E0C62ED12CCC0EDD1E8E010F5F6D
:100270001F4FA89580916200882309F4E7DE8091E2
:1002800062008A3009F4E5DE809162008E3110F060
:100290001092620080916E0090916F008130910504
:1002A00041F7809165008823D1F18091640090E04E
:1002B00053E0880F991F5A95E1F780599F4FB80175
:1002C000A701960158D1882399F4E0916400F0E0E9
:1002D0008A8190E0EE0FFF1FE859FF4F91838083E2
:1002E0002981213029F4909581959F4F91838083B6
:1002F000809164008F5F80936400909165008917FE
:1003000010F0109264006091640070E033E0660FBA
:10031000771F3A95E1F760597F4F81E015D1109230
:100320006F0010926E00A5CF86B382700895C19AB7
:10033000B99A0895C198B9980895C198B99A8FEB60
:1003400093E00197F1F700C000009FB7F894B998C7
:10035000E0EBEA95F1F786B39FBFEBE3F3E031976B
:10036000F1F700C00000B19B02C08270089581E0E7
:1003700008959FB7F894B99A22E02A95F1F700C042
:100380008111B99825E22A95F1F70000B19B80E030
:1003900028E72A95F1F7B9989FBF08950F931F9307
:1003A000182F08E0812F8170E4DF16958111106805
:1003B0000150C1F7812F1F910F9108958FEFEEDF4C
:1003C0000895DF92EF92FF920F931F93CF93DF93E5
:1003D000182FEB01B2DF882369F580EFDFDFEE2411
:1003E00000E498EFD92ED00E81E0C3DFF82E81E033
:1003F000C0DF882319F0FF2069F01FC0FF2051F4EF
:10040000011728F0888180FF05C0101719F0E02E31
:10041000FF24F3948F2DADDF888186958883FF209C
:1004200011F08068888301500D15F1F6002339F032
:100430002196D7CFEE24EA9402C08EEFE82E8E2DBF
:10044000DF91CF911F910F91FF90EF90DF90089572
:100450000F931F93CF93DF93182FEB016EDF20973D
:1004600041F085E59BDF08E0899198DF0150E1F7D5
:1004700002C08CEC93DF812F91DFDF91CF911F9130
:100480000F9108950F931F93CF93DF93FB01DA0130
:10049000E801408150E0718160E0462B572B8031AC
:1004A00071F4BA016E7F13E0660F771F1A95E1F7BA
:1004B00096814CE050E0491B5109460F571F57FFEA
:1004C00006C091E09C93509541955F4F01C01C92EE
:1004D000883289F4848190E0BC0160767070603667
:1004E000710549F086FF02C04E7F05C085FF02C03E
:1004F0004C7F01C0487FCA0154E0969587955A9574
:10050000E1F7F90180834F70488380E0DF91CF915C
:100510001F910F9108950F931F93CF93DF938C0139
:10052000EB01F8018081BE014CDFF801808381502E
:100530008D3F28F48881883211F0803191F7DF9166
:10054000CF911F910F9108951F93CF93DF93182F91
:10055000EB01F3DEE9DE882339F084E4BE0178DFC5
:10056000113021F0E4DE02C082E001C080E0DF91C2
:10057000CF911F9108956F927F928F929F92AF9229
:10058000BF92CF92DF92EF92FF920F931F93DF9370
:10059000CF93CDB7DEB7C950CDBF7C014B013A0137
:1005A0005901CBDE8EEBB70153DF8E010F5F1F4F7A
:1005B0008AE0C82ED12CCC0EDD1E00DFF80181931D
:1005C0008F01EC15FD05C9F78E010F5F1F4FC801A4
:1005D00069E070E01DD0882349F4F7018081B801FB
:1005E000A401930185014EDF80E001C083E0C75F75
:1005F000CDBFCF91DF911F910F91FF90EF90DF90D2
:10060000CF90BF90AF909F908F907F906F90089504
:10061000282F392FF90120E030E080E0A8E112C056
:10062000419198E0542F5827B52FB17050FD8A277B
:100630008695B13009F48068915011F04695F2CF5B
:100640002F5F3F4F2617370759F70895F894FFCFCC
:00000001FF
