:1000000012C02AC029C028C027C07EC025C024C075
:1000100023C022C021C020C01FC01EC01DC01CC0E4
:100020001BC01AC019C011241FBECFEDCDBF10E0F8
:10003000A0E6B0E0E2ECF7E002C005900D92A23637
:10004000B107D9F710E0A2E6B0E001C01D92A038D8
:10005000B107E1F796D0B3C3D3CF94980895949A9B
:1000600008959598FADF0895959AF9DF0895CF924B
:10007000DF92EF92FF920F931F93DF93CF93CDB751
:10008000DEB7C950CDBF109269008FEF89838E0112
:100090000E5F1F4F7E010894E11CF11C2AE0C22E66
:1000A000D12CCC0EDD1E1CC0C701B801C6D289817F
:1000B0008F3FE9F08E3FD9F080916900D801E82F99
:1000C000F0E093E0EE0FFF1F9A95E1F7E059FF4F44
:1000D0009D919193AC15BD05D9F78F5F8093690011
:1000E0008981882321F0809169008230E8F2809133
:1000F0006900C75FCDBFCF91DF911F910F91FF9036
:10010000EF90DF90CF9008951F920F920FB60F924D
:1001100011248F939F9382EB9FEF9DBD8CBD8091A7
:1001200065008F5F809365008E3038F01092650017
:100130008CB59DB501979DBD8CBD809162008F5F90
:10014000809362008436B0F0109262008091630068
:100150008F5F809363008C3368F01092630080910E
:1001600064008F5F8093640081E090E09093610071
:10017000809360009F918F910F900FBE0F901F9002
:1001800018950F931F93DF93CF93CDB7DEB7C3506E
:10019000CDBF80E886BD16BC90E09A95F1F789BF87
:1001A00085E08EBD82EB9FEF9DBD8CBD78948D9ACE
:1001B0008C9A1A825CDF8093690010926B00109217
:1001C0006A0012C0E3E0660F771FEA95E1F7605915
:1001D0007F4F81E04BD280916A0090916B00019635
:1001E00090936B0080936A0060916A0070916B003D
:1001F0008091690090E06817790724F32EDF8FEF74
:1002000094E3ACE081509040A040E1F700C00000D2
:10021000A89527DF8FEF94E3ACE081509040A04099
:10022000E1F700C00000A895A8958091600090912A
:1002300061008130910509F049C0809169008823EF
:1002400009F440C08091680090E053E0880F991F46
:100250005A95E1F780599F4FBE016F5F7F4FAE0106
:100260004E5F5F4F9E012D5F3F4F17D2882399F459
:10027000E0916800F0E08A8190E0EE0FFF1FE45902
:10028000FF4F918380832981213029F490958195B6
:100290009F4F91838083809168008F5F8093680077
:1002A00090916900891710F01092680060916800C1
:1002B00070E033E0660F771F3A95E1F760597F4FA2
:1002C00081E0D4D1109261001092600080916C00A6
:1002D00090916D0090936700809366002091640078
:1002E0002A3019F0883191050CF0BEDE809164004F
:1002F0008E3150F0809166009091670088319105B1
:100300001CF4AFDE1092640080916600909167004B
:1003100097FF1BC0909581959F4F909367008093A6
:1003200066009BDE8FEF98E0ADE381509040A040E7
:10033000E1F700C0000093DE8FEF9DE3A9E4815058
:100340009040A040E1F700C0000081E090E0909371
:100350006B0080936A000AE010E01DC07EDE8FE72C
:100360009BE8A8E081509040A040E1F700C0000069
:1003700076DE8FE79BE8A8E081509040A040E1F74F
:1003800000C0000080916A0090916B0001969093EC
:100390006B0080936A008091660090916700B801BD
:1003A000E7D180916A0090916B0068177907B4F6E5
:1003B0008FEF93EDA0E381509040A040E1F700C0A3
:1003C000000081E090E090936B0080936A000AE067
:1003D00010E01DC042DE8FE79BE8A8E0815090400E
:1003E000A040E1F700C000003ADE8FE79BE8A8E0FC
:1003F00081509040A040E1F700C0000080916A0069
:1004000090916B00019690936B0080936A008091AD
:10041000660090916700B801ABD120916A003091DD
:100420006B0082179307B4F68FEF91E1AAE7815032
:100430009040A040E1F700C0000080E090E0CD5F78
:10044000CDBFCF91DF911F910F91089586B3827038
:100450000895C19AB99A0895C198B9980895C19814
:10046000B99A8FEB93E00197F1F700C000009FB7B6
:10047000F894B998E0EBEA95F1F786B39FBFEBE308
:10048000F3E03197F1F700C00000B19B02C0827029
:10049000089581E008959FB7F894B99A22E02A95CB
:1004A000F1F700C08111B99825E22A95F1F7000013
:1004B000B19B80E028E72A95F1F7B9989FBF08958E
:1004C0000F931F93182F08E0812F8170E4DF16959A
:1004D000811110680150C1F7812F1F910F9108956C
:1004E0008FEFEEDF0895DF92EF92FF920F931F934D
:1004F000CF93DF93182FEB01B2DF882369F580EFEC
:10050000DFDFEE2400E498EFD92ED00E81E0C3DFC8
:10051000F82E81E0C0DF882319F0FF2069F01FC0AA
:10052000FF2051F4011728F0888180FF05C01017C3
:1005300019F0E02EFF24F3948F2DADDF888186958E
:100540008883FF2011F08068888301500D15F1F633
:10055000002339F02196D7CFEE24EA9402C08EEF23
:10056000E82E8E2DDF91CF911F910F91FF90EF908C
:10057000DF9008950F931F93CF93DF93182FEB0114
:100580006EDF209741F085E59BDF08E0899198DFD9
:100590000150E1F702C08CEC93DF812F91DFDF91F6
:1005A000CF911F910F9108950F931F93CF93DF93D6
:1005B000FB01DA01E801408150E0718160E0462BE7
:1005C000572B803171F4BA016E7F13E0660F771FED
:1005D0001A95E1F796814CE050E0491B5109460F0E
:1005E000571F57FF06C091E09C93509541955F4F70
:1005F00001C01C92883289F4848190E0BC0160764D
:1006000070706036710549F086FF02C04E7F05C0EC
:1006100085FF02C04C7F01C0487FCA0154E0969517
:1006200087955A95E1F7F90180834F70488380E000
:10063000DF91CF911F910F9108950F931F93CF9347
:10064000DF938C01EB01F8018081BE014CDFF801E2
:10065000808381508D3F28F48881883211F0803169
:1006600091F7DF91CF911F910F9108951F93CF9331
:10067000DF93182FEB01F3DEE9DE882339F084E401
:10068000BE0178DF113021F0E4DE02C082E001C05B
:1006900080E0DF91CF911F9108956F927F928F92AA
:1006A0009F92AF92BF92CF92DF92EF92FF920F9301
:1006B0001F93DF93CF93CDB7DEB7C950CDBF7C0179
:1006C0004B013A015901CBDE8EEBB70153DF8E01AE
:1006D0000F5F1F4F8AE0C82ED12CCC0EDD1E00DF2D
:1006E000F80181938F01EC15FD05C9F78E010F5FAD
:1006F0001F4FC80169E070E01DD0882349F4F7015D
:100700008081B801A401930185014EDF80E001C022
:1007100083E0C75FCDBFCF91DF911F910F91FF9015
:10072000EF90DF90CF90BF90AF909F908F907F9091
:100730006F900895282F392FF90120E030E080E0F4
:10074000A8E112C0419198E0542F5827B52FB170FD
:1007500050FD8A278695B13009F48068915011F0D8
:100760004695F2CF2F5F3F4F2617370759F7089569
:1007700097FB092E07260AD077FD04D00CD006D0AF
:1007800000201AF4709561957F4F0895F6F79095C3
:1007900081959F4F0895AA1BBB1B51E107C0AA1F5B
:1007A000BB1FA617B70710F0A61BB70B881F991F12
:1007B0005A95A9F780959095BC01CD010895F894BC
:0207C000FFCF69
:0207C200010034
:00000001FF
